:020000040800F2
:10000000400400207D010008750200086D02000810
:100010007102000867020008D90300080000000010
:10002000000000000000000000000000790200084D
:100030006B02000800000000770200087B02000845
:100040009701000897010008970100089701000830
:100050009701000897010008970100089701000820
:100060009701000897010008970100089701000810
:100070009701000897010008970100089701000800
:100080009701000897010008000000009701000890
:1000900097010008970100089701000897010008E0
:1000A00097010008970100089701000897010008D0
:1000B0000503000800000000970100080000000090
:1000C0009701000800000000970100089701000850
:1000D0009701000897010008970100080000000040
:1000E00000000000000000009701000897010008D0
:1000F0009701000897010008970100089701000880
:1001000097010008000000000000000097010008AF
:1001100000000000000000000000000000000000DF
:1001200000000000000000000000000000000000CF
:1001300000000000000000000000000000000000BF
:1001400000000000000000000000000000000000AF
:10015000000000000000000097010008970100085F
:100160009701000897010008DFF80CD000F04AF86A
:1001700000480047590F0008400400200648804707
:1001800006480047FEE7FEE7FEE7FEE7FEE7FEE77C
:10019000FEE7FEE7FEE7FEE77D02000869010008D2
:1001A0002DE9F05F0546002092469B4688460646AC
:1001B000814640241BE0284641464746224600F03F
:1001C00042F853465A46C01A914110D31146184678
:1001D000224600F029F82D1A67EB01084F46224607
:1001E0000120002100F020F817EB00094E41201EED
:1001F000A4F10104DFDC484631462A464346BDE807
:10020000F09F0000064C074D06E0E06840F0010357
:1002100094E8070098471034AC42F6D3FFF7A8FFE4
:10022000D0160008F0160008202A04DB203A00FA55
:1002300002F1002070479140C2F1200320FA03F33D
:10024000194390407047202A04DB203A21FA02F03B
:100250000021704721FA02F3D040C2F12002914000
:1002600008431946704700BFFEE7704700BFFEE72E
:1002700000BFFEE7704770477047704710B51D48D4
:10028000006840F001001B49086000BF1948006881
:1002900000F002000028F9D01648406816490840CE
:1002A00014494860084640681449084011494860AC
:1002B0000846406820F4400048600846006810493D
:1002C00008400C4908600846C06A20F00F00C86268
:1002D0000846006B40F2431188430649086308460C
:1002E000406B20F0010048630020886001F02AF98B
:1002F00010BD0000001002400C00FF08FFFFC27795
:10030000FFFFF2FE10B58AB02649274801F0B4F984
:10031000002845D0244801F057F9C1B22348048889
:10032000601C224A1080224801551046008821494D
:100330000978884234D105211B4801F083F91E4811
:10034000B0F916001C49B1F914101B4AB2F9122079
:10035000194BB3F91030CDE90532CDE90710164835
:10036000B0F90E10B0F90C00134AB2F90A20124B82
:10037000B3F90830CDE90132CDE903010E48B0F9F7
:10038000060000900C48B0F90430B0F90220B0F932
:1003900000100AA000F022F80521034801F05FF9DF
:1003A0000AB010BD0500050700440040020000200F
:1003B0000C000020000000202C000020257825786B
:1003C00025782578257825782C2578257825782591
:1003D00078257825780D0A0000BFFEE70FB4054B9D
:1003E00010B503A9044A029800F018F810BC5DF893
:1003F00014FB0000A90D00080800002002E008C856
:10040000121F08C1002AFAD170477047002001E08E
:1004100001C1121F002AFBD1704700002DE9FF4FD8
:100420008DB09B460F460446002606E025280BD0DB
:100430005A460F999047641C761C20780028F5D105
:1004400011B03046BDE8F08F0025A846012298493A
:1004500000E0054314F8013F203B02FA03F0084294
:10046000F7D120782E2817D114F8010F45F0040594
:100470002A280ED06FF02F022078A0F13001092930
:100480000AD808EB880102EB410100EB0108641C6B
:10049000F2E757F8048B641C20786C280DD004DC3C
:1004A0004C2812D06A2811D104E074280DD07A2883
:1004B0000CD10AE045F4001507E0617845F4801599
:1004C000814202D1641C05F58015641C2278692ADA
:1004D00045D008DC002AB3D0582A69D0632A10D04E
:1004E000642A08D13BE0702A67D0732A13D0752A9A
:1004F0005CD0782A5CD010465A460F999047761CFB
:10050000D3E017F8040B8DF8000000208DF80100EF
:10051000E946012003E057F8049B4FF0FF306907DC
:100520004FF0000501D40AE06D1C45450DDA854207
:10053000FADB19F805100029F6D106E06D1C85429A
:10054000FCDB19F805100029F8D12E4404E019F855
:10055000010B5A460F9990476D1EF8D2A5E00A206C
:100560000021CDE90801C5F3025002280DD001CFCA
:10057000C117031E71F100030DDA4FF0000CD0EB30
:100580000C006CEB01012D2308E0FF1D27F007078D
:10059000F7E80201EDE72B0504D52B238DF8283071
:1005A00001233BE0EB0739D02023F7E70A2000E0E6
:1005B00010200021CDE9080107E01020002145F0BE
:1005C0000405CDE908014FF00808C5F302500228E0
:1005D0000FD001CF00214FF0000A2B071FD5702A42
:1005E0000DD0DDE908C38CF0100C5CEA030C0CD0D4
:1005F00015E0FF1D27F00707F7E80201EBE74022AF
:100600008DF828204FF0010A0BE050EA010306D0D4
:1006100030238DF828308DF8292002239A46582A55
:1006200004D024A20DF120090B9209E026A2F9E7DB
:10063000DDE90823FFF7B4FD0B9B9B5C09F8013D46
:1006400050EA0102F4D1ADEB0900203008906807B0
:1006500001D44FF001080899884502DDA8EB01009C
:1006600000E000208046002506E00AA85A46405DCA
:100670000F9990476D1C761C5545F6DB04E0302041
:100680005A460F999047761CB8F10001A8F101086D
:10069000F5DC05E019F8010B5A460F999047761CD6
:1006A0000899481E08900029F4DC641CC5E6000087
:1006B0000928010030313233343536373839616238
:1006C00063646566000000003031323334353637FC
:1006D0003839414243444546000000000D48006857
:1006E00040F008000B49086000BF0A48006800F0AD
:1006F00008000028F9D10748006840F004000549C7
:10070000086000BF0348006800F004000028F9D129
:100710007047000008240140012802D0022821D19E
:100720000EE0124A13684A1E23EA02520F4B1A6067
:100730001A4613684A1E43EA02520C4B1A6012E032
:100740000A4A0C3213684A1E23EA0252074B0C3342
:100750001A601A4613684A1E43EA0252034B0C33CE
:100760001A6000E000BF00BF704700002C24014069
:1007700010B50A210120FFF7CFFF03220021084610
:1007800000F0F0F803220121084600F0EBF8032204
:100790000221084600F0E6F803221146104600F058
:1007A000E1F803220421084600F0DCF803220521C9
:1007B000084600F0D7F803220621084600F0D2F8D8
:1007C00003220721084600F0CDF80322082108463D
:1007D00000F0C8F803220921084600F0C3F80121FF
:1007E000084600F06BF84FF46021012000F090F80B
:1007F000002000F00FF80421012000F01DF800F0A7
:100800004FF8FFF76BFF00F041F8012000F018F9F6
:1008100010BD000030B10749096841F40061054A84
:10082000116005E00349096821F40061014A116083
:100830007047000008240140134A126822F4C05295
:10084000114B1A60012802D002281AD112E00E4A78
:10085000126822F460420C4B1A601A4613684A1E52
:1008600043EA4232084B1A601A46126842F40062A8
:100870001A6007E0044A126842F48052024B1A6080
:1008800000E000BF00BF7047042401400348006837
:1008900040F480700149086070470000082401405E
:1008A0000548006800F0010028B90348006840F0DE
:1008B00001000149086070470824014091B100F02F
:1008C00001022AB1114A126842F480120F4B1A60D9
:1008D00000F00202C2B10D4A126842F400420B4B12
:1008E0001A6011E000F001022AB1084A126822F4ED
:1008F0008012064B1A6000F002022AB1034A126805
:1009000022F40042014B1A607047000008240140A5
:10091000012802D0022816D10AE00C4A126822F4FB
:1009200060220A4B1A601A4612680A431A600BE0EA
:10093000064A126822F4E042044B1A601A46126812
:100940000A431A6000E000BF00BF7047082401405E
:1009500010B500F07BFD00F06FFA00F023F9FFF70F
:1009600007FF10BD70B51446122900D100210628DA
:100970000ED2324D2A6800EB80061F25B540AA43EF
:1009800000EB800501FA05F52A432C4D2A602AE088
:100990000C2812D2294D2D1F2A68851F05EB8506CC
:1009A0001F25B540AA43851F05EB850501FA05F50E
:1009B0002A43224D2D1F2A6015E0102813D21F4D07
:1009C000083D2A68A0F10C0505EB85061F25B540FA
:1009D000AA43A0F10C0505EB850501FA05F52A43AC
:1009E000164D083D2A600A2910D2144D243D2B686B
:1009F00001EB41060725B540AB4301EB410504FA85
:100A000005F52B430D4D243D2B6015E0122913D223
:100A10000A4D283D2B68A1F10A0505EB450607257F
:100A2000B540AB43A1F10A0505EB450504FA05F510
:100A30002B43024D283D2B6070BD00003424014043
:100A400000F0010129B10849096841F48001064A12
:100A5000116000F0020129B10349096841F4001155
:100A6000014A1160704700000824014010B540F2AF
:100A7000115000F0FDFC40F20E6000F0F9FC4FF464
:100A8000007201214FF0904000F0A2F94FF4806213
:100A900001214FF0904000F09BF94FF400730122C8
:100AA00002214FF0904000F00FFA4FF40073012242
:100AB00000214FF0904000F02EFA4FF480630122A5
:100AC00002214FF0904000F0FFF94FF480630122C3
:100AD00000214FF0904000F01EFA0C4800F07EFD1F
:100AE0004FF4E131094800F031FD0821074800F0DA
:100AF000E7FD0421054800F0DBFD0521034800F077
:100B0000AEFD024800F08AFD10BD00000038014033
:100B100070B502460B4600200725002110E0565C08
:100B20007040002409E000F080061EB185EA40060E
:100B3000F0B201E04606300E641C082CF3DB491CC1
:100B40009942ECDB70BD4FF47A7200FB02F100BFFA
:100B50000A1EA1F10101FBD17047000000EB8001EA
:100B6000064A02EB8101896841F0010100EB800235
:100B7000024B03EB820291607047000000000240CC
:100B800000EB8001064A02EB8101896841F02001F7
:100B900000EB8002024B03EB820291607047000081
:100BA0000000024010B5002000F030F81549002088
:100BB00000F08AF81449002000F056F80021084699
:100BC00000F0C6F84FF48061002000F069F84FF49F
:100BD0008071002000F094F84FF40051002000F0E4
:100BE000A3F80A21002000F0D5F8002000F076F8E4
:100BF000002000F043F80020FFF7C2FF0020FFF7BD
:100C0000ADFF10BD4C2401402C00002000EB800102
:100C1000144A02EB8101896821F0010100EB800296
:100C2000104B03EB82029160002100EB800203EB8A
:100C30008202916000EB800203EB8202D16000EB44
:100C4000800203EB8202116100EB800203EB82025F
:100C500051611946496883000F229A401143014AA5
:100C6000516070470000024000EB8002024B03EB32
:100C700082025161704700000000024000EB8001D9
:100C8000064A02EB8101896841F0800100EB800295
:100C9000024B03EB820291607047000000000240AB
:100CA00010B50A4600EB8003064C04EB83039968F9
:100CB00021F44061114300EB800304EB830399604E
:100CC00010BD00000000024000EB8002024B03EB6D
:100CD00082021161704700000000024000EB8001B9
:100CE000064A02EB8101896821F0400100EB800295
:100CF000024B03EB8202916070470000000002404B
:100D000010B50A4600EB8003064C04EB8303996898
:100D100021F44071114300EB800304EB83039960DD
:100D200010BD00000000024010B50A4600EB800331
:100D3000064C04EB8303996821F44051114300EB06
:100D4000800304EB8303996010BD000000000240A3
:100D500010B571B900EB80020D4B03EB8202926873
:100D600022F0100200EB8003094C04EB83039A602D
:100D70000DE000EB8002064B03EB8202926842F02A
:100D8000100200EB8003024C04EB83039A6010BD59
:100D90000000024000EB8002024B03EB8202D160B4
:100DA000704700000000024070B504460D46E1B2F5
:100DB000064800F00EFC00BF40F20771034800F047
:100DC00032FC0028F8D0204670BD000000440040EE
:100DD000F0B503461C6A5D6A00200DE001268640DE
:100DE00016403EB187000F26BE40B443860001FA8C
:100DF00006F63443461CB0B20828EFD3082011E0B1
:100E00000126864016405EB1A0F10806B7000F2605
:100E1000BE40B543A0F10806B60001FA06F6354318
:100E2000461CB0B21028EBD31C625D62F0BD81623B
:100E3000704781617047000010B501230022032133
:100E40004FF0904000F040F80223002203214FF0C1
:100E5000904000F039F80423002203214FF0904025
:100E600000F032F80823002203214FF0904000F0F8
:100E70002BF81023002203214FF0904000F024F8BB
:100E80002023002203214FF0904000F01DF8402362
:100E9000002203214FF0904000F016F8802300223A
:100EA00003214FF0904000F00FF8012300220321AE
:100EB000044800F009F8022300220321014800F051
:100EC00003F810BD00040048F0B504460D46164670
:100ED0002168E268002019E0012787401F409FB188
:100EE0004FEA400C032707FA0CF7B943470005FA0D
:100EF00007F739434FEA400C032707FA0CF7BA43C8
:100F0000470006FA07F73A43471CB8B21028E3D364
:100F10002160E260F0BDF0B50C461546012C03D10E
:100F200046681E43466002E046689E43466082680B
:100F300000210DE001268E401E403EB14F000326E9
:100F4000BE40B2434E0005FA06F632434E1CB1B223
:100F50001029EFD38260F0BD624D0024802000F0A4
:100F600013F940F2125000F083FA04230022012109
:100F70005D48FFF7A9FF04215B48FFF758FFFFF723
:100F800075FDFFF7E5FCABE056480088B0F5496F0A
:100F900041DD5448008840F6F65188423BDC514818
:100FA000408840F6C701884235DB4E48408840F60D
:100FB000BB1188422FDC4B48808840F6D61188420E
:100FC00029DB4848808840F66E51884223DC45483A
:100FD000C08840F60C4188421DDB4248C08840F67C
:100FE0009C51884217DC3F48008940F69F41884267
:100FF00011DB3C48008940F6046188420BDC39482B
:10100000408940F69F41884205DB3648408940F6DA
:10101000046188420ADD04213348FFF70AFF3C20BF
:10102000FFF791FD04213048FFF701FFAA212F4867
:1010300000F0CFFA00BF40F207712C4800F0F3FA3D
:101040000028F8D0AA21294800F0C3FA00BF40F2D6
:101050000771264800F0E7FA0028F8D0002419E0CC
:1010600028194178214800F0B4FA00BF40F2077116
:101070001E4800F0D8FA0028F8D0295D1B4800F07F
:10108000A8FA00BF40F20771184800F0CCFA002817
:10109000F8D0A41C142CE3DB00BF40F20771134806
:1010A00000F0C1FA0028F8D014212846FFF730FDDF
:1010B000064631460D4800F08CFA00BF40F2077139
:1010C0000A4800F0B0FA0028F8D0FF21074800F0E5
:1010D00080FA0120FFF7B4FC4FF47A70FFF733FD7C
:1010E00052E700002C0000200004004800380140B6
:1010F0002449496821F44041224A51601146096B54
:1011000021F480711163052839D2DFE800F0030A69
:1011100014202C001B49096B21F48071194A1163BA
:101120002EE018494968174A51601146096B41F48D
:101130008071116324E01349496841F48041114AE8
:1011400051601146096B41F48071116318E00D493B
:10115000496841F400410B4A51601146096B41F462
:10116000807111630CE00749496841F44041054A28
:1011700051601146096B41F48071116300E000BFBA
:1011800000BF70470010024001460020044A50682A
:1011900020F0F00041EA0002014B5A607047000065
:1011A000001002402DE9F04F8FB004464FF0000CC4
:1011B000E0460020002200258146CDF8389000212D
:1011C000CDF83490CDF83090CDF82C900023CDF8A8
:1011D0002890CDF82490CDF82090002600270FF21B
:1011E0004C2999E8004CD9F80C90CDE905BECDF812
:1011F00010A0CDF81C900FF2382ADAE9009ACDE958
:10120000029A0FF22C2ADAE9009ACDE9009ADFF867
:101210002C92D9F80490C9F3810CBCF1000F06D0D0
:10122000BCF1010F05D0BCF1020F3FD103E0844AAD
:101230003EE0834A3CE0DFF80492D9F80490C9F319
:101240008343DFF8F891D9F80490C9F3C069CDF869
:101250002890DDF82890B9F1000F01D0113300E09B
:101260009B1CDFF8D891D9F80490C9F30049CDF858
:101270002490DDF82490B9F1000F12D0DFF8BC9172
:10128000D9F82C9009F00F0909F10109CDF8209047
:10129000DFF8ACA1DDF82090BAFBF9F909FB03F205
:1012A00003E0DFF8A09103FB09F201E0644A00BF0C
:1012B00000BFDFF88891D9F80490C9F303160DF147
:1012C000100919F8067022FA07F5DFF87091D9F8BD
:1012D0000490C9F302260DF1080919F8067025FAE1
:1012E00007F9CDF83890DFF85491D9F80490C9F394
:1012F000C2261DF8067025FA07F1072C72D2DFE826
:1013000004F00406080A0C475B00104689E02846F2
:1013100087E00E9885E0084683E0DFF82091D9F851
:10132000309009F48079B9F5807F04D0DFF8189106
:10133000CDF834902AE0DFF80491D9F80490C9F38D
:101340008138B8F1000F09D0B8F1010F0BD0B8F116
:10135000020F0DD0B8F1030F16D110E04FEA51097A
:10136000CDF8349011E04FEA9109CDF834900CE0BB
:101370004FF00609B1FBF9F9CDF8349005E04FEADA
:10138000D109CDF8349000E000BF00BF0D9848E0CF
:10139000DFF8A890D9F8309009F04009B9F1400F72
:1013A00004D048F21209CDF8309003E04FF4004920
:1013B000CDF830900C9834E0DFF88090D9F8309078
:1013C00009F00309B9F1000F01D10B9126E0DFF814
:1013D0006C90D9F8309009F00309B9F1010F02D1EE
:1013E0000B921BE01CE0DFF85490D9F8309009F024
:1013F0000309B9F1020F04D14FF40049CDF82C9044
:101400000CE0DFF83890D9F8309009F00309B9F111
:10141000030F03D1DFF82890CDF82C900B9800E053
:1014200000BF00BF0FB0BDE8F08F0000000000005B
:101430000000000001020304060708090010024032
:1014400000127A0000093D00809FD50010B540F2DF
:10145000135000F00DF840F2096000F009F84FF465
:10146000A06000F005F80320FFF742FE10BD000069
:10147000064A02EB9011096800F01F0301229A400E
:101480001143024B03EB90121160704700100240B1
:10149000064A02EB9011096800F01F0301229A40EE
:1014A0009143024B03EB9012116070470010024011
:1014B000064A02EB9011096800F01F0301229A40CE
:1014C0001143024B03EB9012116070470010024071
:1014D00000201B49096841F48031194A116000BF9E
:1014E0001749096801F4003121B90146401CB1F5E2
:1014F000006FF5D11249096801F4003101B9704754
:101500000F49496841F080010D4A51601146496810
:1015100051601146496851601146496821F0030144
:1015200051601146496841F00101516000BF044912
:10153000496801F004010029F9D000BFDFE700008D
:101540000010024010B5FFF7C3FF10BD2DE9F047B2
:1015500004460D460027B846B946002619482044DF
:1015600038B1B0F5744F09D10620FFF71BFE0746CE
:1015700005E00220FFF716FE074600E000BF00BFAF
:10158000206800F4004070B1780000EB5500B0FB1B
:10159000F5F64FF6F07006EA0008C6F3420948EA8D
:1015A0000900E0600CE007EB5500B0FBF5F64FF6E4
:1015B000F07006EA000806F00F0948EA0900E0604A
:1015C000BDE8F08700BCFFBF0146486AC0F30800D1
:1015D0007047C1F3080282627047000010B50446EC
:1015E0000D48204458B1B0F5744F11D140F20E307F
:1015F000FFF75EFF40F20E30FFF74AFF09E040F2CE
:101600001140FFF755FF40F21140FFF741FF00E0A6
:1016100000BF00BF10BD000000BCFFBF016841F06B
:1016200001010160704710B5024602EB911000689D
:1016300001F01F040123A340184008B1012010BD90
:101640000020FCE710B5C1F38912825801F01F0495
:101650000123A3409A43C1F38913C25010BD10B5B2
:10166000C1F38912825801F01F040123A3401A43D9
:10167000C1F38913C25010BD70B502460023002487
:10168000C1F38910105801F01F060125B54000EA8A
:10169000050302EB91500068C1F304460125B540F3
:1016A00000EA050414B10BB1012070BD0020FCE775
:1016B000026822F00402026002680A430260704776
:1016C000026822F00802026002680A430260704762
:1016D000F0160008000000200C000000FC030008C9
:1016E000FC1600080C000020340400000C04000864
:0C16F000000000000A00000000000000E4
:040000050800016985
:00000001FF
